{
  "_format": "hh-sol-artifact-1",
  "contractName": "CashP",
  "sourceName": "contracts/CashP.sol",
  "abi": [
    {
      "inputs": [],
      "stateMutability": "nonpayable",
      "type": "constructor"
    },
    {
      "anonymous": false,
      "inputs": [
        {
          "indexed": true,
          "internalType": "address",
          "name": "owner",
          "type": "address"
        },
        {
          "indexed": true,
          "internalType": "address",
          "name": "spender",
          "type": "address"
        },
        {
          "indexed": false,
          "internalType": "uint256",
          "name": "value",
          "type": "uint256"
        }
      ],
      "name": "Approval",
      "type": "event"
    },
    {
      "anonymous": false,
      "inputs": [
        {
          "indexed": true,
          "internalType": "address",
          "name": "from",
          "type": "address"
        },
        {
          "indexed": true,
          "internalType": "address",
          "name": "to",
          "type": "address"
        },
        {
          "indexed": false,
          "internalType": "uint256",
          "name": "value",
          "type": "uint256"
        }
      ],
      "name": "Transfer",
      "type": "event"
    },
    {
      "inputs": [
        {
          "internalType": "address",
          "name": "owner",
          "type": "address"
        },
        {
          "internalType": "address",
          "name": "spender",
          "type": "address"
        }
      ],
      "name": "allowance",
      "outputs": [
        {
          "internalType": "uint256",
          "name": "",
          "type": "uint256"
        }
      ],
      "stateMutability": "view",
      "type": "function"
    },
    {
      "inputs": [
        {
          "internalType": "address",
          "name": "spender",
          "type": "address"
        },
        {
          "internalType": "uint256",
          "name": "value",
          "type": "uint256"
        }
      ],
      "name": "approve",
      "outputs": [
        {
          "internalType": "bool",
          "name": "",
          "type": "bool"
        }
      ],
      "stateMutability": "nonpayable",
      "type": "function"
    },
    {
      "inputs": [
        {
          "internalType": "address",
          "name": "owner",
          "type": "address"
        }
      ],
      "name": "balanceOf",
      "outputs": [
        {
          "internalType": "uint256",
          "name": "",
          "type": "uint256"
        }
      ],
      "stateMutability": "view",
      "type": "function"
    },
    {
      "inputs": [],
      "name": "decimals",
      "outputs": [
        {
          "internalType": "uint8",
          "name": "",
          "type": "uint8"
        }
      ],
      "stateMutability": "view",
      "type": "function"
    },
    {
      "inputs": [
        {
          "internalType": "address",
          "name": "spender",
          "type": "address"
        },
        {
          "internalType": "uint256",
          "name": "subtractedValue",
          "type": "uint256"
        }
      ],
      "name": "decreaseAllowance",
      "outputs": [
        {
          "internalType": "bool",
          "name": "",
          "type": "bool"
        }
      ],
      "stateMutability": "nonpayable",
      "type": "function"
    },
    {
      "inputs": [
        {
          "internalType": "address",
          "name": "spender",
          "type": "address"
        },
        {
          "internalType": "uint256",
          "name": "addedValue",
          "type": "uint256"
        }
      ],
      "name": "increaseAllowance",
      "outputs": [
        {
          "internalType": "bool",
          "name": "",
          "type": "bool"
        }
      ],
      "stateMutability": "nonpayable",
      "type": "function"
    },
    {
      "inputs": [],
      "name": "lp",
      "outputs": [
        {
          "internalType": "address",
          "name": "",
          "type": "address"
        }
      ],
      "stateMutability": "view",
      "type": "function"
    },
    {
      "inputs": [],
      "name": "lpTax",
      "outputs": [
        {
          "internalType": "uint256",
          "name": "",
          "type": "uint256"
        }
      ],
      "stateMutability": "view",
      "type": "function"
    },
    {
      "inputs": [],
      "name": "marketinWalletTax",
      "outputs": [
        {
          "internalType": "uint256",
          "name": "",
          "type": "uint256"
        }
      ],
      "stateMutability": "view",
      "type": "function"
    },
    {
      "inputs": [],
      "name": "marketingWallet",
      "outputs": [
        {
          "internalType": "address",
          "name": "",
          "type": "address"
        }
      ],
      "stateMutability": "view",
      "type": "function"
    },
    {
      "inputs": [],
      "name": "name",
      "outputs": [
        {
          "internalType": "string",
          "name": "",
          "type": "string"
        }
      ],
      "stateMutability": "view",
      "type": "function"
    },
    {
      "inputs": [],
      "name": "symbol",
      "outputs": [
        {
          "internalType": "string",
          "name": "",
          "type": "string"
        }
      ],
      "stateMutability": "view",
      "type": "function"
    },
    {
      "inputs": [],
      "name": "totalSupply",
      "outputs": [
        {
          "internalType": "uint256",
          "name": "",
          "type": "uint256"
        }
      ],
      "stateMutability": "view",
      "type": "function"
    },
    {
      "inputs": [
        {
          "internalType": "address",
          "name": "to",
          "type": "address"
        },
        {
          "internalType": "uint256",
          "name": "value",
          "type": "uint256"
        }
      ],
      "name": "transfer",
      "outputs": [
        {
          "internalType": "bool",
          "name": "",
          "type": "bool"
        }
      ],
      "stateMutability": "nonpayable",
      "type": "function"
    },
    {
      "inputs": [
        {
          "internalType": "address",
          "name": "from",
          "type": "address"
        },
        {
          "internalType": "address",
          "name": "to",
          "type": "address"
        },
        {
          "internalType": "uint256",
          "name": "value",
          "type": "uint256"
        }
      ],
      "name": "transferFrom",
      "outputs": [
        {
          "internalType": "bool",
          "name": "",
          "type": "bool"
        }
      ],
      "stateMutability": "nonpayable",
      "type": "function"
    }
  ],
  "bytecode": "0x6080604052600880546001600160a01b031990811673f491e7b69e4244ad4002bc14e878a34207e38c291790915560098054909116734f499c43b8060fb794147b18cefec7d5ad76107d1790556007600a556003600b553480156200006357600080fd5b50604080518082018252600c81526b21b0b9b410283934b73a32b960a11b602080830191825283518085019094526005845264043617368560dc1b908401528151919291620000b591600391620001c8565b508051620000cb906004906020840190620001c8565b505050620000ea3369d3c21bcecceda1000000620000f060201b60201c565b620002d0565b6001600160a01b0382166200010457600080fd5b6200012081600754620001b360201b620005311790919060201c565b6007556001600160a01b0382166000908152600560209081526040909120546200015591839062000531620001b3821b17901c565b6001600160a01b0383166000818152600560205260408082209390935591519091907fddf252ad1be2c89b69c2b068fc378daa952ba7f163c4a11628f55a4df523b3ef90620001a79085815260200190565b60405180910390a35050565b6000620001c182846200026e565b9392505050565b828054620001d69062000293565b90600052602060002090601f016020900481019282620001fa576000855562000245565b82601f106200021557805160ff191683800117855562000245565b8280016001018555821562000245579182015b828111156200024557825182559160200191906001019062000228565b506200025392915062000257565b5090565b5b8082111562000253576000815560010162000258565b600082198211156200028e57634e487b7160e01b81526011600452602481fd5b500190565b600181811c90821680620002a857607f821691505b60208210811415620002ca57634e487b7160e01b600052602260045260246000fd5b50919050565b61091a80620002e06000396000f3fe608060405234801561001057600080fd5b50600436106100f55760003560e01c8063395093511161009757806395d89b411161006657806395d89b41146101fb578063a457c2d714610203578063a9059cbb14610216578063dd62ed3e1461022957600080fd5b806339509351146101a35780635cb083e0146101b657806370a08231146101bf57806375f0a874146101e857600080fd5b80631de3b450116100d35780631de3b4501461014d57806323b872dd14610156578063313c06a014610169578063313ce5671461019457600080fd5b806306fdde03146100fa578063095ea7b31461011857806318160ddd1461013b575b600080fd5b610102610262565b60405161010f91906107d2565b60405180910390f35b61012b6101263660046107a9565b6102f4565b604051901515815260200161010f565b6007545b60405190815260200161010f565b61013f600a5481565b61012b61016436600461076e565b61036e565b60085461017c906001600160a01b031681565b6040516001600160a01b03909116815260200161010f565b6040516012815260200161010f565b61012b6101b13660046107a9565b61042f565b61013f600b5481565b61013f6101cd366004610722565b6001600160a01b031660009081526005602052604090205490565b60095461017c906001600160a01b031681565b6101026104c9565b61012b6102113660046107a9565b6104d8565b61012b6102243660046107a9565b61051b565b61013f61023736600461073c565b6001600160a01b03918216600090815260066020908152604080832093909416825291909152205490565b60606003805461027190610893565b80601f016020809104026020016040519081016040528092919081815260200182805461029d90610893565b80156102ea5780601f106102bf576101008083540402835291602001916102ea565b820191906000526020600020905b8154815290600101906020018083116102cd57829003601f168201915b5050505050905090565b60006001600160a01b03831661030957600080fd5b3360008181526006602090815260408083206001600160a01b03881680855290835292819020869055518581529192917f8c5be1e5ebec7d5bd14f71427d1e84f3dd0314c0f7b2291e5b200ac8c7c3b92591015b60405180910390a350600192915050565b6001600160a01b038316600090815260066020908152604080832033845290915281205461039c9083610544565b6001600160a01b03851660009081526006602090815260408083203384529091529020556103cb848484610550565b6001600160a01b038416600081815260066020908152604080832033808552908352928190205490519081529192917f8c5be1e5ebec7d5bd14f71427d1e84f3dd0314c0f7b2291e5b200ac8c7c3b925910160405180910390a35060019392505050565b60006001600160a01b03831661044457600080fd5b3360009081526006602090815260408083206001600160a01b03871684529091529020546104729083610531565b3360008181526006602090815260408083206001600160a01b038916808552908352928190208590555193845290927f8c5be1e5ebec7d5bd14f71427d1e84f3dd0314c0f7b2291e5b200ac8c7c3b925910161035d565b60606004805461027190610893565b60006001600160a01b0383166104ed57600080fd5b3360009081526006602090815260408083206001600160a01b03871684529091529020546104729083610544565b6000610528338484610550565b50600192915050565b600061053d8284610825565b9392505050565b600061053d828461087c565b6001600160a01b03821661056357600080fd5b6105a76105866064610580600b54856106ee90919063ffffffff16565b906106fa565b6009546001600160a01b031660009081526005602052604090205490610531565b6009546001600160a01b0316600090815260056020526040902055600a546105fc906105db906064906105809085906106ee565b6008546001600160a01b031660009081526005602052604090205490610531565b6008546001600160a01b0316600090815260056020526040902055610638606461062783600a6106ee565b610631919061083d565b8290610544565b6001600160a01b03841660009081526005602052604090205490915061065e9082610544565b6001600160a01b03808516600090815260056020526040808220939093559084168152205461068d9082610531565b6001600160a01b0380841660008181526005602052604090819020939093559151908516907fddf252ad1be2c89b69c2b068fc378daa952ba7f163c4a11628f55a4df523b3ef906106e19085815260200190565b60405180910390a3505050565b600061053d828461085d565b600061053d828461083d565b80356001600160a01b038116811461071d57600080fd5b919050565b600060208284031215610733578081fd5b61053d82610706565b6000806040838503121561074e578081fd5b61075783610706565b915061076560208401610706565b90509250929050565b600080600060608486031215610782578081fd5b61078b84610706565b925061079960208501610706565b9150604084013590509250925092565b600080604083850312156107bb578182fd5b6107c483610706565b946020939093013593505050565b6000602080835283518082850152825b818110156107fe578581018301518582016040015282016107e2565b8181111561080f5783604083870101525b50601f01601f1916929092016040019392505050565b60008219821115610838576108386108ce565b500190565b60008261085857634e487b7160e01b81526012600452602481fd5b500490565b6000816000190483118215151615610877576108776108ce565b500290565b60008282101561088e5761088e6108ce565b500390565b600181811c908216806108a757607f821691505b602082108114156108c857634e487b7160e01b600052602260045260246000fd5b50919050565b634e487b7160e01b600052601160045260246000fdfea2646970667358221220584cde2c320186a14f11929c2cb50d5b2644d812a16332e36131264073c4c88b64736f6c63430008040033",
  "linkReferences": {},
  "deployedLinkReferences": {}
}