{
  "_format": "hh-sol-artifact-1",
  "contractName": "Staking",
  "sourceName": "contracts/Staking.sol",
  "abi": [
    {
      "inputs": [
        {
          "internalType": "address",
          "name": "_cashpAddress",
          "type": "address"
        },
        {
          "internalType": "address",
          "name": "_marketWalletAddress",
          "type": "address"
        }
      ],
      "stateMutability": "nonpayable",
      "type": "constructor"
    },
    {
      "anonymous": false,
      "inputs": [
        {
          "indexed": false,
          "internalType": "address",
          "name": "claimer",
          "type": "address"
        },
        {
          "indexed": false,
          "internalType": "uint256",
          "name": "claimAmount",
          "type": "uint256"
        },
        {
          "indexed": false,
          "internalType": "bool",
          "name": "expired",
          "type": "bool"
        }
      ],
      "name": "Claim",
      "type": "event"
    },
    {
      "anonymous": false,
      "inputs": [
        {
          "indexed": true,
          "internalType": "address",
          "name": "admin",
          "type": "address"
        },
        {
          "indexed": false,
          "internalType": "uint256",
          "name": "amount",
          "type": "uint256"
        }
      ],
      "name": "InitBalance",
      "type": "event"
    },
    {
      "anonymous": false,
      "inputs": [
        {
          "indexed": true,
          "internalType": "address",
          "name": "lender",
          "type": "address"
        },
        {
          "indexed": false,
          "internalType": "uint256",
          "name": "lendAmount",
          "type": "uint256"
        },
        {
          "indexed": false,
          "internalType": "uint256",
          "name": "timeLend",
          "type": "uint256"
        },
        {
          "indexed": false,
          "internalType": "uint256",
          "name": "timeLastClaim",
          "type": "uint256"
        },
        {
          "indexed": false,
          "internalType": "uint256",
          "name": "timeNextClaim",
          "type": "uint256"
        },
        {
          "indexed": false,
          "internalType": "uint256",
          "name": "timeLendDueDate",
          "type": "uint256"
        },
        {
          "indexed": false,
          "internalType": "bool",
          "name": "retrieved",
          "type": "bool"
        }
      ],
      "name": "NewLend",
      "type": "event"
    },
    {
      "anonymous": false,
      "inputs": [
        {
          "indexed": true,
          "internalType": "address",
          "name": "previousOwner",
          "type": "address"
        },
        {
          "indexed": true,
          "internalType": "address",
          "name": "newOwner",
          "type": "address"
        }
      ],
      "name": "OwnershipTransferred",
      "type": "event"
    },
    {
      "anonymous": false,
      "inputs": [
        {
          "indexed": false,
          "internalType": "uint256",
          "name": "price",
          "type": "uint256"
        }
      ],
      "name": "PriceOfCashPUpdated",
      "type": "event"
    },
    {
      "inputs": [],
      "name": "ROI",
      "outputs": [
        {
          "internalType": "uint256",
          "name": "",
          "type": "uint256"
        }
      ],
      "stateMutability": "view",
      "type": "function"
    },
    {
      "inputs": [],
      "name": "cashpAddress",
      "outputs": [
        {
          "internalType": "address",
          "name": "",
          "type": "address"
        }
      ],
      "stateMutability": "view",
      "type": "function"
    },
    {
      "inputs": [],
      "name": "cashpPrice",
      "outputs": [
        {
          "internalType": "uint256",
          "name": "",
          "type": "uint256"
        }
      ],
      "stateMutability": "view",
      "type": "function"
    },
    {
      "inputs": [],
      "name": "cashpTotalLiquidity",
      "outputs": [
        {
          "internalType": "uint256",
          "name": "",
          "type": "uint256"
        }
      ],
      "stateMutability": "view",
      "type": "function"
    },
    {
      "inputs": [
        {
          "internalType": "uint256",
          "name": "_amount",
          "type": "uint256"
        }
      ],
      "name": "checkEnoughLiquidity",
      "outputs": [
        {
          "internalType": "bool",
          "name": "",
          "type": "bool"
        }
      ],
      "stateMutability": "view",
      "type": "function"
    },
    {
      "inputs": [],
      "name": "claim",
      "outputs": [],
      "stateMutability": "nonpayable",
      "type": "function"
    },
    {
      "inputs": [],
      "name": "compound",
      "outputs": [],
      "stateMutability": "nonpayable",
      "type": "function"
    },
    {
      "inputs": [
        {
          "internalType": "uint256",
          "name": "_amount",
          "type": "uint256"
        }
      ],
      "name": "deposite",
      "outputs": [],
      "stateMutability": "nonpayable",
      "type": "function"
    },
    {
      "inputs": [
        {
          "internalType": "uint256",
          "name": "_amount",
          "type": "uint256"
        }
      ],
      "name": "initCashp",
      "outputs": [],
      "stateMutability": "nonpayable",
      "type": "function"
    },
    {
      "inputs": [],
      "name": "lendCount",
      "outputs": [
        {
          "internalType": "uint256",
          "name": "",
          "type": "uint256"
        }
      ],
      "stateMutability": "view",
      "type": "function"
    },
    {
      "inputs": [
        {
          "internalType": "address",
          "name": "",
          "type": "address"
        },
        {
          "internalType": "uint256",
          "name": "",
          "type": "uint256"
        }
      ],
      "name": "lends",
      "outputs": [
        {
          "internalType": "address",
          "name": "lender",
          "type": "address"
        },
        {
          "internalType": "uint256",
          "name": "lendId",
          "type": "uint256"
        },
        {
          "internalType": "uint256",
          "name": "lendAmount",
          "type": "uint256"
        },
        {
          "internalType": "uint256",
          "name": "timeLend",
          "type": "uint256"
        },
        {
          "internalType": "uint256",
          "name": "timeLastClaim",
          "type": "uint256"
        },
        {
          "internalType": "uint256",
          "name": "timeNextClaim",
          "type": "uint256"
        },
        {
          "internalType": "uint256",
          "name": "timeLendDueDate",
          "type": "uint256"
        },
        {
          "internalType": "bool",
          "name": "retrieved",
          "type": "bool"
        }
      ],
      "stateMutability": "view",
      "type": "function"
    },
    {
      "inputs": [],
      "name": "marketWalletAddress",
      "outputs": [
        {
          "internalType": "address",
          "name": "",
          "type": "address"
        }
      ],
      "stateMutability": "view",
      "type": "function"
    },
    {
      "inputs": [],
      "name": "owner",
      "outputs": [
        {
          "internalType": "address",
          "name": "",
          "type": "address"
        }
      ],
      "stateMutability": "view",
      "type": "function"
    },
    {
      "inputs": [],
      "name": "renounceOwnership",
      "outputs": [],
      "stateMutability": "nonpayable",
      "type": "function"
    },
    {
      "inputs": [
        {
          "internalType": "uint256",
          "name": "price",
          "type": "uint256"
        }
      ],
      "name": "setCashpPrice",
      "outputs": [],
      "stateMutability": "nonpayable",
      "type": "function"
    },
    {
      "inputs": [],
      "name": "stakingPeriod",
      "outputs": [
        {
          "internalType": "uint256",
          "name": "",
          "type": "uint256"
        }
      ],
      "stateMutability": "view",
      "type": "function"
    },
    {
      "inputs": [],
      "name": "taxLend",
      "outputs": [
        {
          "internalType": "uint256",
          "name": "",
          "type": "uint256"
        }
      ],
      "stateMutability": "view",
      "type": "function"
    },
    {
      "inputs": [
        {
          "internalType": "address",
          "name": "newOwner",
          "type": "address"
        }
      ],
      "name": "transferOwnership",
      "outputs": [],
      "stateMutability": "nonpayable",
      "type": "function"
    },
    {
      "inputs": [
        {
          "internalType": "address",
          "name": "",
          "type": "address"
        }
      ],
      "name": "userClaimAmount",
      "outputs": [
        {
          "internalType": "uint256",
          "name": "",
          "type": "uint256"
        }
      ],
      "stateMutability": "view",
      "type": "function"
    },
    {
      "inputs": [
        {
          "internalType": "address",
          "name": "",
          "type": "address"
        }
      ],
      "name": "userLendsAmount",
      "outputs": [
        {
          "internalType": "uint256",
          "name": "",
          "type": "uint256"
        }
      ],
      "stateMutability": "view",
      "type": "function"
    },
    {
      "inputs": [
        {
          "internalType": "address",
          "name": "",
          "type": "address"
        }
      ],
      "name": "userLendsCount",
      "outputs": [
        {
          "internalType": "uint256",
          "name": "",
          "type": "uint256"
        }
      ],
      "stateMutability": "view",
      "type": "function"
    },
    {
      "inputs": [
        {
          "internalType": "uint256",
          "name": "_amount",
          "type": "uint256"
        }
      ],
      "name": "withDrawReserve",
      "outputs": [],
      "stateMutability": "nonpayable",
      "type": "function"
    },
    {
      "inputs": [],
      "name": "withdrawPeriod",
      "outputs": [
        {
          "internalType": "uint256",
          "name": "",
          "type": "uint256"
        }
      ],
      "stateMutability": "view",
      "type": "function"
    }
  ],
  "bytecode": "0x608060405262ed4e006005556201518060065563042c1d806007556002600855600a6009553480156200003157600080fd5b5060405162001d9e38038062001d9e833981016040819052620000549162000107565b6200005f336200009a565b600180556000600255600380546001600160a01b039384166001600160a01b031991821617909155600480549290931691161790556200013e565b600080546001600160a01b038381166001600160a01b0319831681178455604051919092169283917f8be0079c531659141344cd1fd0a4f28419497f9722a3daafe3b4186f6b6457e09190a35050565b80516001600160a01b03811681146200010257600080fd5b919050565b600080604083850312156200011a578182fd5b6200012583620000ea565b91506200013560208401620000ea565b90509250929050565b611c50806200014e6000396000f3fe608060405234801561001057600080fd5b506004361061014d5760003560e01c806382a165dc116100c3578063a7e6f2901161007c578063a7e6f2901461034c578063c03d5b471461035f578063cbedbf1b14610368578063d5c431591461037b578063f2fde38b14610384578063f69e20461461039757600080fd5b806382a165dc146102e357806384bcf81e146102f65780638a6a29a0146103095780638da5cb5b146103295780638f1f49831461033a57806395372c061461034357600080fd5b8063484aaa9911610115578063484aaa991461025c5780634e71d92d1461027f578063699e0f5614610287578063715018a6146102905780637adac61e146102985780637eb96b7b146102c357600080fd5b806312eb4f9a1461015257806318e137f01461016e57806329da64191461018e5780633104562b14610197578063439b3543146101ac575b600080fd5b61015b60065481565b6040519081526020015b60405180910390f35b61015b61017c366004611a0e565b600b6020526000908152604090205481565b61015b60025481565b6101aa6101a5366004611a71565b61039f565b005b6102156101ba366004611a28565b600d602090815260009283526040808420909152908252902080546001820154600283015460038401546004850154600586015460068701546007909701546001600160a01b03909616969495939492939192909160ff1688565b604080516001600160a01b0390991689526020890197909752958701949094526060860192909252608085015260a084015260c0830152151560e082015261010001610165565b61026f61026a366004611a71565b61079a565b6040519015158152602001610165565b6101aa6107ba565b61015b60015481565b6101aa610eb3565b6003546102ab906001600160a01b031681565b6040516001600160a01b039091168152602001610165565b61015b6102d1366004611a0e565b600c6020526000908152604090205481565b6101aa6102f1366004611a71565b610ee9565b6004546102ab906001600160a01b031681565b61015b610317366004611a0e565b600a6020526000908152604090205481565b6000546001600160a01b03166102ab565b61015b60075481565b61015b60095481565b6101aa61035a366004611a71565b610f4e565b61015b60055481565b6101aa610376366004611a71565b6110a8565b61015b60085481565b6101aa610392366004611a0e565b611241565b6101aa6112dc565b60006103c160646103bb600954856117ac90919063ffffffff16565b906117bf565b905060006103cf83836117cb565b6003546040516323b872dd60e01b81529192506001600160a01b0316906323b872dd9061040490339030908690600401611a89565b602060405180830381600087803b15801561041e57600080fd5b505af1158015610432573d6000803e3d6000fd5b505050506040513d601f19601f820116820180604052508101906104569190611a51565b61047b5760405162461bcd60e51b815260040161047290611aad565b60405180910390fd5b600354600480546040516323b872dd60e01b81526001600160a01b03938416936323b872dd936104b2933393921691889101611a89565b602060405180830381600087803b1580156104cc57600080fd5b505af11580156104e0573d6000803e3d6000fd5b505050506040513d601f19601f820116820180604052508101906105049190611a51565b6105205760405162461bcd60e51b815260040161047290611aad565b6105286119a2565b338082526000908152600a602090815260409182902054908301528101829052426060820181905261055d9062ed4e00611b7b565b60c082015242608082018190526105779062015180611b7b565b60a08201908152600060e08301818152338252600d60209081526040808420600a83528185205485528252808420865181546001600160a01b0319166001600160a01b039091161781559186015160018084019190915590860151600283015560608601516003830155608086015160048301559351600582015560c0850151600682015590516007909101805460ff19169115159190911790558154919061061f83611be9565b9091555050336000908152600a6020526040812080549161063f83611be9565b9091555050336000908152600b602052604090205461065e81846117d7565b336000908152600b6020526040908190208290556003549051633950935160e01b8152306004820152602481018690529192506001600160a01b031690633950935190604401602060405180830381600087803b1580156106be57600080fd5b505af11580156106d2573d6000803e3d6000fd5b505050506040513d601f19601f820116820180604052508101906106f69190611a51565b5060025461070490846117d7565b60025581516040808401516060850151608086015160a087015160c088015160e089015195516001600160a01b03909716967f01d49482f4cb5cc9faa74dd0fde983c4e5387b6a372a4896e324a3a2ae94cc599661078b9695949392919586526020860194909452604085019290925260608401526080830152151560a082015260c00190565b60405180910390a25050505050565b600254600090808311156107b15750600092915050565b50600192915050565b6000806107c56117e3565b905060005b8151811015610a16578181815181106107f357634e487b7160e01b600052603260045260246000fd5b602002602001015160e00151610a0457600082828151811061082557634e487b7160e01b600052603260045260246000fd5b60200260200101516020015110610a04574282828151811061085757634e487b7160e01b600052603260045260246000fd5b602002602001015160a0015111610a0457336001600160a01b031682828151811061089257634e487b7160e01b600052603260045260246000fd5b6020026020010151600001516001600160a01b03161415610a04576000428383815181106108d057634e487b7160e01b600052603260045260246000fd5b602002602001015160c001511061092e5761092760186103bb603c6103bb603c88888151811061091057634e487b7160e01b600052603260045260246000fd5b602002602001015160800151426103bb9190611bd2565b90506109a2565b61099f60186103bb603c6103bb603c88888151811061095d57634e487b7160e01b600052603260045260246000fd5b60200260200101516080015189898151811061098957634e487b7160e01b600052603260045260246000fd5b602002602001015160c001516103bb9190611bd2565b90505b60006109f3826109ed60646103bb6008548989815181106109d357634e487b7160e01b600052603260045260246000fd5b6020026020010151604001516117ac90919063ffffffff16565b906117ac565b90506109ff85826117d7565b945050505b80610a0e81611be9565b9150506107ca565b50610a208261079a565b610a835760405162461bcd60e51b815260206004820152602e60248201527f636c61696d3a206e6f7420656e6f756768204361736870206c6971756964697460448201526d79206f66204d61726b6574696e6760901b6064820152608401610472565b6000610a9f60646109ed6002548661193a90919063ffffffff16565b90506000670de0b6b3a76400008210610ac957610ac260646103bb8660056117ac565b9050610be3565b671bc16d674ec800008210610ae857610ac260646103bb86600a6117ac565b6729a2241af62c00008210610b0757610ac260646103bb86600f6117ac565b673782dace9d9000008210610b2657610ac260646103bb8660146117ac565b674563918244f400008210610b4557610ac260646103bb8660196117ac565b6753444835ec5800008210610b6457610ac260646103bb86601e6117ac565b676124fee993bc00008210610b8357610ac260646103bb8660236117ac565b676f05b59d3b2000008210610ba257610ac260646103bb8660286117ac565b677ce66c50e28400008210610bc157610ac260646103bb86602d6117ac565b678ac7230489e800008210610be357610be060646103bb8660326117ac565b90505b6000610bef85836117cb565b6003546040516323b872dd60e01b81529192506001600160a01b0316906323b872dd90610c2490309033908690600401611a89565b602060405180830381600087803b158015610c3e57600080fd5b505af1158015610c52573d6000803e3d6000fd5b505050506040513d601f19601f82011682018060405250810190610c769190611a51565b610cdb5760405162461bcd60e51b815260206004820152603060248201527f636c61696d3a206661696c207472616e736665722063617368702066726f6d2060448201526f31b7b73a3930b1ba103a37903ab9b2b960811b6064820152608401610472565b600354600480546040516323b872dd60e01b81526001600160a01b03938416936323b872dd93610d12933093921691889101611a89565b602060405180830381600087803b158015610d2c57600080fd5b505af1158015610d40573d6000803e3d6000fd5b505050506040513d601f19601f82011682018060405250810190610d649190611a51565b610dd65760405162461bcd60e51b815260206004820152603a60248201527f636c61696d3a206661696c207472616e736665722063617368702066726f6d2060448201527f636f6e747261637420746f206d61726b65742077616c6c6574200000000000006064820152608401610472565b600254610de390866117cb565b50336000908152600c6020526040902054610dfe81836117d7565b336000908152600c60205260408120919091555b336000908152600a6020526040902054811015610eaa57336000908152600d602090815260408083208484529091529020600781015460ff16610e975780546001600160a01b0316331415610e97574260048201819055610e769062015180611b7b565b60058201819055600682015411610e975760078101805460ff191660011790555b5080610ea281611be9565b915050610e12565b50505050505050565b6000546001600160a01b03163314610edd5760405162461bcd60e51b815260040161047290611b46565b610ee76000611952565b565b6000546001600160a01b03163314610f135760405162461bcd60e51b815260040161047290611b46565b60078190556040518181527fdfec83bf751111b25fe62c0ba432702a67f73bd2b75bbf6961423962f17d9e7b9060200160405180910390a150565b6000546001600160a01b03163314610f785760405162461bcd60e51b815260040161047290611b46565b610f818161079a565b610ff35760405162461bcd60e51b815260206004820152603860248201527f7769746844726177526573657276653a206e6f7420656e6f756768204361736860448201527f70206c6971756964697479206f66204d61726b6574696e6700000000000000006064820152608401610472565b6003546040516323b872dd60e01b81526001600160a01b03909116906323b872dd9061102790309033908690600401611a89565b602060405180830381600087803b15801561104157600080fd5b505af1158015611055573d6000803e3d6000fd5b505050506040513d601f19601f820116820180604052508101906110799190611a51565b6110955760405162461bcd60e51b815260040161047290611b03565b6002546110a290826117cb565b60025550565b6000546001600160a01b031633146110d25760405162461bcd60e51b815260040161047290611b46565b6003546040516323b872dd60e01b81526001600160a01b03909116906323b872dd9061110690339030908690600401611a89565b602060405180830381600087803b15801561112057600080fd5b505af1158015611134573d6000803e3d6000fd5b505050506040513d601f19601f820116820180604052508101906111589190611a51565b6111745760405162461bcd60e51b815260040161047290611b03565b600354604051633950935160e01b8152306004820152602481018390526001600160a01b0390911690633950935190604401602060405180830381600087803b1580156111c057600080fd5b505af11580156111d4573d6000803e3d6000fd5b505050506040513d601f19601f820116820180604052508101906111f89190611a51565b5060025461120690826117d7565b60025560405181815233907f4c94cc7b9194bb9209824a53bc1a99a306eb9a1301664c500b1ff71360902f7d9060200160405180910390a250565b6000546001600160a01b0316331461126b5760405162461bcd60e51b815260040161047290611b46565b6001600160a01b0381166112d05760405162461bcd60e51b815260206004820152602660248201527f4f776e61626c653a206e6577206f776e657220697320746865207a65726f206160448201526564647265737360d01b6064820152608401610472565b6112d981611952565b50565b6000806112e76117e3565b905060005b81518110156114bf5781818151811061131557634e487b7160e01b600052603260045260246000fd5b602002602001015160e001516114ad57600082828151811061134757634e487b7160e01b600052603260045260246000fd5b602002602001015160200151106114ad574282828151811061137957634e487b7160e01b600052603260045260246000fd5b602002602001015160a00151116114ad57336001600160a01b03168282815181106113b457634e487b7160e01b600052603260045260246000fd5b6020026020010151600001516001600160a01b031614156114ad576000428383815181106113f257634e487b7160e01b600052603260045260246000fd5b602002602001015160c00151106114395761143260186103bb603c6103bb603c88888151811061091057634e487b7160e01b600052603260045260246000fd5b905061146b565b61146860186103bb603c6103bb603c88888151811061095d57634e487b7160e01b600052603260045260246000fd5b90505b600061149c826109ed60646103bb6008548989815181106109d357634e487b7160e01b600052603260045260246000fd5b90506114a885826117d7565b945050505b806114b781611be9565b9150506112ec565b506114c98261079a565b61152f5760405162461bcd60e51b815260206004820152603160248201527f636f6d706f756e643a206e6f7420656e6f756768204361736870206c6971756960448201527064697479206f66204d61726b6574696e6760781b6064820152608401610472565b6115376119a2565b338082526000908152600a602090815260409182902054908301528101839052426060820181905261156c9062ed4e00611b7b565b60c082015242608082018190526115869062015180611b7b565b60a08201908152600060e08301818152338252600d60209081526040808420600a83528185205485528252808420865181546001600160a01b0319166001600160a01b039091161781559186015160018084019190915590860151600283015560608601516003830155608086015160048301559351600582015560c0850151600682015590516007909101805460ff19169115159190911790558154919061162e83611be9565b9091555050336000908152600a6020526040812080549161164e83611be9565b9091555050336000908152600b602052604090205461166d81856117d7565b336000908152600b60205260408120919091555b336000908152600a602052604090205481101561171957336000908152600d602090815260408083208484529091529020600781015460ff166117065780546001600160a01b03163314156117065742600482018190556116e59062015180611b7b565b600582018190556006820154116117065760078101805460ff191660011790555b508061171181611be9565b915050611681565b5081600001516001600160a01b03167f01d49482f4cb5cc9faa74dd0fde983c4e5387b6a372a4896e324a3a2ae94cc598360400151846060015185608001518660a001518760c001518860e0015160405161179e969594939291909586526020860194909452604085019290925260608401526080830152151560a082015260c00190565b60405180910390a250505050565b60006117b88284611bb3565b9392505050565b60006117b88284611b93565b60006117b88284611bd2565b60006117b88284611b7b565b336000908152600a60205260408120546060919067ffffffffffffffff81111561181d57634e487b7160e01b600052604160045260246000fd5b60405190808252806020026020018201604052801561185657816020015b6118436119a2565b81526020019060019003908161183b5790505b50905060005b336000908152600a602052604090205481101561193457336000908152600d6020908152604080832084845282529182902082516101008101845281546001600160a01b031681526001820154928101929092526002810154928201929092526003820154606082015260048201546080820152600582015460a0820152600682015460c082015260079091015460ff16151560e0820152825183908390811061191657634e487b7160e01b600052603260045260246000fd5b6020026020010181905250808061192c90611be9565b91505061185c565b50919050565b60006117b8826103bb85670de0b6b3a76400006117ac565b600080546001600160a01b038381166001600160a01b0319831681178455604051919092169283917f8be0079c531659141344cd1fd0a4f28419497f9722a3daafe3b4186f6b6457e09190a35050565b60405180610100016040528060006001600160a01b031681526020016000815260200160008152602001600081526020016000815260200160008152602001600081526020016000151581525090565b80356001600160a01b0381168114611a0957600080fd5b919050565b600060208284031215611a1f578081fd5b6117b8826119f2565b60008060408385031215611a3a578081fd5b611a43836119f2565b946020939093013593505050565b600060208284031215611a62578081fd5b815180151581146117b8578182fd5b600060208284031215611a82578081fd5b5035919050565b6001600160a01b039384168152919092166020820152604081019190915260600190565b60208082526036908201527f6c656e64546f6b656e3a205472616e7366657220746f6b656e2066726f6d20756040820152751cd95c881d1bc818dbdb9d1c9858dd0819985a5b195960521b606082015260800190565b60208082526023908201527f5472616e73616374696f6e206661696c6564206f6e20696e69742066756e637460408201526234b7b760e91b606082015260800190565b6020808252818101527f4f776e61626c653a2063616c6c6572206973206e6f7420746865206f776e6572604082015260600190565b60008219821115611b8e57611b8e611c04565b500190565b600082611bae57634e487b7160e01b81526012600452602481fd5b500490565b6000816000190483118215151615611bcd57611bcd611c04565b500290565b600082821015611be457611be4611c04565b500390565b6000600019821415611bfd57611bfd611c04565b5060010190565b634e487b7160e01b600052601160045260246000fdfea26469706673582212204bfbdc62e22ab82583ad7f73debf51b9b427c290b5aa620901c9cf7422450f2964736f6c63430008040033",
  "linkReferences": {},
  "deployedLinkReferences": {}
}