{
  "_format": "hh-sol-artifact-1",
  "contractName": "Staking",
  "sourceName": "contracts/Staking.sol",
  "abi": [
    {
      "inputs": [
        {
          "internalType": "address",
          "name": "_cashpAddress",
          "type": "address"
        },
        {
          "internalType": "address",
          "name": "_marketWalletAddress",
          "type": "address"
        }
      ],
      "stateMutability": "nonpayable",
      "type": "constructor"
    },
    {
      "anonymous": false,
      "inputs": [
        {
          "indexed": false,
          "internalType": "address",
          "name": "claimer",
          "type": "address"
        },
        {
          "indexed": false,
          "internalType": "uint256",
          "name": "claimAmount",
          "type": "uint256"
        },
        {
          "indexed": false,
          "internalType": "bool",
          "name": "expired",
          "type": "bool"
        }
      ],
      "name": "Claim",
      "type": "event"
    },
    {
      "anonymous": false,
      "inputs": [
        {
          "indexed": true,
          "internalType": "address",
          "name": "admin",
          "type": "address"
        },
        {
          "indexed": false,
          "internalType": "uint256",
          "name": "amount",
          "type": "uint256"
        }
      ],
      "name": "InitBalance",
      "type": "event"
    },
    {
      "anonymous": false,
      "inputs": [
        {
          "indexed": true,
          "internalType": "address",
          "name": "lender",
          "type": "address"
        },
        {
          "indexed": false,
          "internalType": "uint256",
          "name": "lendAmount",
          "type": "uint256"
        },
        {
          "indexed": false,
          "internalType": "uint256",
          "name": "timeLend",
          "type": "uint256"
        },
        {
          "indexed": false,
          "internalType": "uint256",
          "name": "timeLastClaim",
          "type": "uint256"
        },
        {
          "indexed": false,
          "internalType": "uint256",
          "name": "timeNextClaim",
          "type": "uint256"
        },
        {
          "indexed": false,
          "internalType": "uint256",
          "name": "timeLendDueDate",
          "type": "uint256"
        },
        {
          "indexed": false,
          "internalType": "bool",
          "name": "retrieved",
          "type": "bool"
        }
      ],
      "name": "NewLend",
      "type": "event"
    },
    {
      "anonymous": false,
      "inputs": [
        {
          "indexed": true,
          "internalType": "address",
          "name": "previousOwner",
          "type": "address"
        },
        {
          "indexed": true,
          "internalType": "address",
          "name": "newOwner",
          "type": "address"
        }
      ],
      "name": "OwnershipTransferred",
      "type": "event"
    },
    {
      "anonymous": false,
      "inputs": [
        {
          "indexed": false,
          "internalType": "uint256",
          "name": "price",
          "type": "uint256"
        }
      ],
      "name": "PriceOfCashPUpdated",
      "type": "event"
    },
    {
      "inputs": [],
      "name": "ROI",
      "outputs": [
        {
          "internalType": "uint256",
          "name": "",
          "type": "uint256"
        }
      ],
      "stateMutability": "view",
      "type": "function"
    },
    {
      "inputs": [],
      "name": "cashpAddress",
      "outputs": [
        {
          "internalType": "address",
          "name": "",
          "type": "address"
        }
      ],
      "stateMutability": "view",
      "type": "function"
    },
    {
      "inputs": [],
      "name": "cashpPrice",
      "outputs": [
        {
          "internalType": "uint256",
          "name": "",
          "type": "uint256"
        }
      ],
      "stateMutability": "view",
      "type": "function"
    },
    {
      "inputs": [],
      "name": "cashpTotalLiquidity",
      "outputs": [
        {
          "internalType": "uint256",
          "name": "",
          "type": "uint256"
        }
      ],
      "stateMutability": "view",
      "type": "function"
    },
    {
      "inputs": [
        {
          "internalType": "uint256",
          "name": "_amount",
          "type": "uint256"
        }
      ],
      "name": "checkEnoughLiquidity",
      "outputs": [
        {
          "internalType": "bool",
          "name": "",
          "type": "bool"
        }
      ],
      "stateMutability": "view",
      "type": "function"
    },
    {
      "inputs": [],
      "name": "claim",
      "outputs": [],
      "stateMutability": "nonpayable",
      "type": "function"
    },
    {
      "inputs": [],
      "name": "compound",
      "outputs": [],
      "stateMutability": "nonpayable",
      "type": "function"
    },
    {
      "inputs": [
        {
          "internalType": "uint256",
          "name": "_amount",
          "type": "uint256"
        }
      ],
      "name": "deposite",
      "outputs": [],
      "stateMutability": "nonpayable",
      "type": "function"
    },
    {
      "inputs": [
        {
          "internalType": "uint256",
          "name": "_amount",
          "type": "uint256"
        }
      ],
      "name": "initCashp",
      "outputs": [],
      "stateMutability": "nonpayable",
      "type": "function"
    },
    {
      "inputs": [],
      "name": "lendCount",
      "outputs": [
        {
          "internalType": "uint256",
          "name": "",
          "type": "uint256"
        }
      ],
      "stateMutability": "view",
      "type": "function"
    },
    {
      "inputs": [
        {
          "internalType": "address",
          "name": "",
          "type": "address"
        },
        {
          "internalType": "uint256",
          "name": "",
          "type": "uint256"
        }
      ],
      "name": "lends",
      "outputs": [
        {
          "internalType": "address",
          "name": "lender",
          "type": "address"
        },
        {
          "internalType": "uint256",
          "name": "lendId",
          "type": "uint256"
        },
        {
          "internalType": "uint256",
          "name": "lendAmount",
          "type": "uint256"
        },
        {
          "internalType": "uint256",
          "name": "timeLend",
          "type": "uint256"
        },
        {
          "internalType": "uint256",
          "name": "timeLastClaim",
          "type": "uint256"
        },
        {
          "internalType": "uint256",
          "name": "timeNextClaim",
          "type": "uint256"
        },
        {
          "internalType": "uint256",
          "name": "timeLendDueDate",
          "type": "uint256"
        },
        {
          "internalType": "bool",
          "name": "retrieved",
          "type": "bool"
        }
      ],
      "stateMutability": "view",
      "type": "function"
    },
    {
      "inputs": [],
      "name": "marketWalletAddress",
      "outputs": [
        {
          "internalType": "address",
          "name": "",
          "type": "address"
        }
      ],
      "stateMutability": "view",
      "type": "function"
    },
    {
      "inputs": [],
      "name": "owner",
      "outputs": [
        {
          "internalType": "address",
          "name": "",
          "type": "address"
        }
      ],
      "stateMutability": "view",
      "type": "function"
    },
    {
      "inputs": [],
      "name": "renounceOwnership",
      "outputs": [],
      "stateMutability": "nonpayable",
      "type": "function"
    },
    {
      "inputs": [
        {
          "internalType": "uint256",
          "name": "price",
          "type": "uint256"
        }
      ],
      "name": "setCashpPrice",
      "outputs": [],
      "stateMutability": "nonpayable",
      "type": "function"
    },
    {
      "inputs": [],
      "name": "stakingPeriod",
      "outputs": [
        {
          "internalType": "uint256",
          "name": "",
          "type": "uint256"
        }
      ],
      "stateMutability": "view",
      "type": "function"
    },
    {
      "inputs": [],
      "name": "taxLend",
      "outputs": [
        {
          "internalType": "uint256",
          "name": "",
          "type": "uint256"
        }
      ],
      "stateMutability": "view",
      "type": "function"
    },
    {
      "inputs": [
        {
          "internalType": "address",
          "name": "newOwner",
          "type": "address"
        }
      ],
      "name": "transferOwnership",
      "outputs": [],
      "stateMutability": "nonpayable",
      "type": "function"
    },
    {
      "inputs": [
        {
          "internalType": "address",
          "name": "",
          "type": "address"
        }
      ],
      "name": "userClaimAmount",
      "outputs": [
        {
          "internalType": "uint256",
          "name": "",
          "type": "uint256"
        }
      ],
      "stateMutability": "view",
      "type": "function"
    },
    {
      "inputs": [
        {
          "internalType": "address",
          "name": "",
          "type": "address"
        }
      ],
      "name": "userLendsAmount",
      "outputs": [
        {
          "internalType": "uint256",
          "name": "",
          "type": "uint256"
        }
      ],
      "stateMutability": "view",
      "type": "function"
    },
    {
      "inputs": [
        {
          "internalType": "address",
          "name": "",
          "type": "address"
        }
      ],
      "name": "userLendsCount",
      "outputs": [
        {
          "internalType": "uint256",
          "name": "",
          "type": "uint256"
        }
      ],
      "stateMutability": "view",
      "type": "function"
    },
    {
      "inputs": [
        {
          "internalType": "uint256",
          "name": "_amount",
          "type": "uint256"
        }
      ],
      "name": "withDrawReserve",
      "outputs": [],
      "stateMutability": "nonpayable",
      "type": "function"
    },
    {
      "inputs": [],
      "name": "withdrawPeriod",
      "outputs": [
        {
          "internalType": "uint256",
          "name": "",
          "type": "uint256"
        }
      ],
      "stateMutability": "view",
      "type": "function"
    }
  ],
  "bytecode": "0x608060405262ed4e00600555603c60065563042c1d806007556002600855600a6009553480156200002f57600080fd5b5060405162001cfa38038062001cfa833981016040819052620000529162000105565b6200005d3362000098565b600180556000600255600380546001600160a01b039384166001600160a01b031991821617909155600480549290931691161790556200013c565b600080546001600160a01b038381166001600160a01b0319831681178455604051919092169283917f8be0079c531659141344cd1fd0a4f28419497f9722a3daafe3b4186f6b6457e09190a35050565b80516001600160a01b03811681146200010057600080fd5b919050565b6000806040838503121562000118578182fd5b6200012383620000e8565b91506200013360208401620000e8565b90509250929050565b611bae806200014c6000396000f3fe608060405234801561001057600080fd5b506004361061014d5760003560e01c806382a165dc116100c3578063a7e6f2901161007c578063a7e6f2901461034c578063c03d5b471461035f578063cbedbf1b14610368578063d5c431591461037b578063f2fde38b14610384578063f69e20461461039757600080fd5b806382a165dc146102e357806384bcf81e146102f65780638a6a29a0146103095780638da5cb5b146103295780638f1f49831461033a57806395372c061461034357600080fd5b8063484aaa9911610115578063484aaa991461025c5780634e71d92d1461027f578063699e0f5614610287578063715018a6146102905780637adac61e146102985780637eb96b7b146102c357600080fd5b806312eb4f9a1461015257806318e137f01461016e57806329da64191461018e5780633104562b14610197578063439b3543146101ac575b600080fd5b61015b60065481565b6040519081526020015b60405180910390f35b61015b61017c36600461192a565b600b6020526000908152604090205481565b61015b60025481565b6101aa6101a536600461198d565b61039f565b005b6102156101ba366004611944565b600d602090815260009283526040808420909152908252902080546001820154600283015460038401546004850154600586015460068701546007909701546001600160a01b03909616969495939492939192909160ff1688565b604080516001600160a01b0390991689526020890197909752958701949094526060860192909252608085015260a084015260c0830152151560e082015261010001610165565b61026f61026a36600461198d565b610798565b6040519015158152602001610165565b6101aa6107b8565b61015b60015481565b6101aa610e57565b6003546102ab906001600160a01b031681565b6040516001600160a01b039091168152602001610165565b61015b6102d136600461192a565b600c6020526000908152604090205481565b6101aa6102f136600461198d565b610e8d565b6004546102ab906001600160a01b031681565b61015b61031736600461192a565b600a6020526000908152604090205481565b6000546001600160a01b03166102ab565b61015b60075481565b61015b60095481565b6101aa61035a36600461198d565b610ef2565b61015b60055481565b6101aa61037636600461198d565b611026565b61015b60085481565b6101aa61039236600461192a565b6111bf565b6101aa61125a565b60006103c160646103bb600954856116c890919063ffffffff16565b906116db565b905060006103cf83836116e7565b6003546040516323b872dd60e01b81529192506001600160a01b0316906323b872dd90610404903390309086906004016119a5565b602060405180830381600087803b15801561041e57600080fd5b505af1158015610432573d6000803e3d6000fd5b505050506040513d601f19601f82011682018060405250810190610456919061196d565b61047b5760405162461bcd60e51b8152600401610472906119c9565b60405180910390fd5b600354600480546040516323b872dd60e01b81526001600160a01b03938416936323b872dd936104b29333939216918891016119a5565b602060405180830381600087803b1580156104cc57600080fd5b505af11580156104e0573d6000803e3d6000fd5b505050506040513d601f19601f82011682018060405250810190610504919061196d565b6105205760405162461bcd60e51b8152600401610472906119c9565b6105286118be565b338082526000908152600a602090815260409182902054908301528101829052426060820181905261055d9062ed4e00611ad9565b60c0820152426080820181905261057590603c611ad9565b60a08201908152600060e08301818152338252600d60209081526040808420600a83528185205485528252808420865181546001600160a01b0319166001600160a01b039091161781559186015160018084019190915590860151600283015560608601516003830155608086015160048301559351600582015560c0850151600682015590516007909101805460ff19169115159190911790558154919061061d83611b47565b9091555050336000908152600a6020526040812080549161063d83611b47565b9091555050336000908152600b602052604090205461065c81846116f3565b336000908152600b6020526040908190208290556003549051633950935160e01b8152306004820152602481018690529192506001600160a01b031690633950935190604401602060405180830381600087803b1580156106bc57600080fd5b505af11580156106d0573d6000803e3d6000fd5b505050506040513d601f19601f820116820180604052508101906106f4919061196d565b5060025461070290846116f3565b60025581516040808401516060850151608086015160a087015160c088015160e089015195516001600160a01b03909716967f01d49482f4cb5cc9faa74dd0fde983c4e5387b6a372a4896e324a3a2ae94cc59966107899695949392919586526020860194909452604085019290925260608401526080830152151560a082015260c00190565b60405180910390a25050505050565b600254600090808311156107af5750600092915050565b50600192915050565b6000806107c36116ff565b905060005b8151811015610a00578181815181106107f157634e487b7160e01b600052603260045260246000fd5b602002602001015160e001516109ee57600082828151811061082357634e487b7160e01b600052603260045260246000fd5b602002602001015160200151106109ee574282828151811061085557634e487b7160e01b600052603260045260246000fd5b602002602001015160a00151116109ee57336001600160a01b031682828151811061089057634e487b7160e01b600052603260045260246000fd5b6020026020010151600001516001600160a01b031614156109ee576000428383815181106108ce57634e487b7160e01b600052603260045260246000fd5b602002602001015160c00151106109225761091b603c84848151811061090457634e487b7160e01b600052603260045260246000fd5b602002602001015160800151426103bb9190611b30565b905061098c565b610989603c84848151811061094757634e487b7160e01b600052603260045260246000fd5b60200260200101516080015185858151811061097357634e487b7160e01b600052603260045260246000fd5b602002602001015160c001516103bb9190611b30565b90505b60006109dd826109d760646103bb6008548989815181106109bd57634e487b7160e01b600052603260045260246000fd5b6020026020010151604001516116c890919063ffffffff16565b906116c8565b90506109e985826116f3565b945050505b806109f881611b47565b9150506107c8565b50610a0a82610798565b610a265760405162461bcd60e51b815260040161047290611a62565b6000610a4260646109d76002548661185690919063ffffffff16565b90506000670de0b6b3a76400008210610a6c57610a6560646103bb8660056116c8565b9050610b86565b671bc16d674ec800008210610a8b57610a6560646103bb86600a6116c8565b6729a2241af62c00008210610aaa57610a6560646103bb86600f6116c8565b673782dace9d9000008210610ac957610a6560646103bb8660146116c8565b674563918244f400008210610ae857610a6560646103bb8660196116c8565b6753444835ec5800008210610b0757610a6560646103bb86601e6116c8565b676124fee993bc00008210610b2657610a6560646103bb8660236116c8565b676f05b59d3b2000008210610b4557610a6560646103bb8660286116c8565b677ce66c50e28400008210610b6457610a6560646103bb86602d6116c8565b678ac7230489e800008210610b8657610b8360646103bb8660326116c8565b90505b6000610b9285836116e7565b6003546040516323b872dd60e01b81529192506001600160a01b0316906323b872dd90610bc7903090339086906004016119a5565b602060405180830381600087803b158015610be157600080fd5b505af1158015610bf5573d6000803e3d6000fd5b505050506040513d601f19601f82011682018060405250810190610c19919061196d565b610c815760405162461bcd60e51b815260206004820152603360248201527f77697468447261773a206661696c207472616e7366657220636173687020667260448201527237b69031b7b73a3930b1ba103a37903ab9b2b960691b6064820152608401610472565b600354600480546040516323b872dd60e01b81526001600160a01b03938416936323b872dd93610cb89330939216918891016119a5565b602060405180830381600087803b158015610cd257600080fd5b505af1158015610ce6573d6000803e3d6000fd5b505050506040513d601f19601f82011682018060405250810190610d0a919061196d565b610d7c5760405162461bcd60e51b815260206004820152603d60248201527f77697468447261773a206661696c207472616e7366657220636173687020667260448201527f6f6d20636f6e747261637420746f206d61726b65742077616c6c6574200000006064820152608401610472565b600254610d8990866116e7565b50336000908152600c6020526040902054610da481836116f3565b336000908152600c60205260408120919091555b336000908152600a6020526040902054811015610e4e57336000908152600d602090815260408083208484529091529020600781015460ff16610e3b5780546001600160a01b0316331415610e3b574260048201819055610e1a90603c611ad9565b60058201819055600682015411610e3b5760078101805460ff191660011790555b5080610e4681611b47565b915050610db8565b50505050505050565b6000546001600160a01b03163314610e815760405162461bcd60e51b815260040161047290611aa4565b610e8b600061186e565b565b6000546001600160a01b03163314610eb75760405162461bcd60e51b815260040161047290611aa4565b60078190556040518181527fdfec83bf751111b25fe62c0ba432702a67f73bd2b75bbf6961423962f17d9e7b9060200160405180910390a150565b6000546001600160a01b03163314610f1c5760405162461bcd60e51b815260040161047290611aa4565b610f2581610798565b610f715760405162461bcd60e51b815260206004820152601e60248201527f77697468447261773a206e6f7420656e6f756768206c697175696469747900006044820152606401610472565b6003546040516323b872dd60e01b81526001600160a01b03909116906323b872dd90610fa5903090339086906004016119a5565b602060405180830381600087803b158015610fbf57600080fd5b505af1158015610fd3573d6000803e3d6000fd5b505050506040513d601f19601f82011682018060405250810190610ff7919061196d565b6110135760405162461bcd60e51b815260040161047290611a1f565b60025461102090826116e7565b60025550565b6000546001600160a01b031633146110505760405162461bcd60e51b815260040161047290611aa4565b6003546040516323b872dd60e01b81526001600160a01b03909116906323b872dd90611084903390309086906004016119a5565b602060405180830381600087803b15801561109e57600080fd5b505af11580156110b2573d6000803e3d6000fd5b505050506040513d601f19601f820116820180604052508101906110d6919061196d565b6110f25760405162461bcd60e51b815260040161047290611a1f565b600354604051633950935160e01b8152306004820152602481018390526001600160a01b0390911690633950935190604401602060405180830381600087803b15801561113e57600080fd5b505af1158015611152573d6000803e3d6000fd5b505050506040513d601f19601f82011682018060405250810190611176919061196d565b5060025461118490826116f3565b60025560405181815233907f4c94cc7b9194bb9209824a53bc1a99a306eb9a1301664c500b1ff71360902f7d9060200160405180910390a250565b6000546001600160a01b031633146111e95760405162461bcd60e51b815260040161047290611aa4565b6001600160a01b03811661124e5760405162461bcd60e51b815260206004820152602660248201527f4f776e61626c653a206e6577206f776e657220697320746865207a65726f206160448201526564647265737360d01b6064820152608401610472565b6112578161186e565b50565b6000806112656116ff565b905060005b81518110156114295781818151811061129357634e487b7160e01b600052603260045260246000fd5b602002602001015160e001516114175760008282815181106112c557634e487b7160e01b600052603260045260246000fd5b6020026020010151602001511061141757428282815181106112f757634e487b7160e01b600052603260045260246000fd5b602002602001015160a001511161141757336001600160a01b031682828151811061133257634e487b7160e01b600052603260045260246000fd5b6020026020010151600001516001600160a01b031614156114175760004283838151811061137057634e487b7160e01b600052603260045260246000fd5b602002602001015160c00151106113ad576113a6603c84848151811061090457634e487b7160e01b600052603260045260246000fd5b90506113d5565b6113d2603c84848151811061094757634e487b7160e01b600052603260045260246000fd5b90505b6000611406826109d760646103bb6008548989815181106109bd57634e487b7160e01b600052603260045260246000fd5b905061141285826116f3565b945050505b8061142181611b47565b91505061126a565b5061143382610798565b61144f5760405162461bcd60e51b815260040161047290611a62565b6114576118be565b338082526000908152600a602090815260409182902054908301528101839052426060820181905261148c9062ed4e00611ad9565b60c082015242608082018190526114a490603c611ad9565b60a08201908152600060e08301818152338252600d60209081526040808420600a83528185205485528252808420865181546001600160a01b0319166001600160a01b039091161781559186015160018084019190915590860151600283015560608601516003830155608086015160048301559351600582015560c0850151600682015590516007909101805460ff19169115159190911790558154919061154c83611b47565b9091555050336000908152600a6020526040812080549161156c83611b47565b9091555050336000908152600b602052604090205461158b81856116f3565b336000908152600b60205260408120919091555b336000908152600a602052604090205481101561163557336000908152600d602090815260408083208484529091529020600781015460ff166116225780546001600160a01b031633141561162257426004820181905561160190603c611ad9565b600582018190556006820154116116225760078101805460ff191660011790555b508061162d81611b47565b91505061159f565b5081600001516001600160a01b03167f01d49482f4cb5cc9faa74dd0fde983c4e5387b6a372a4896e324a3a2ae94cc598360400151846060015185608001518660a001518760c001518860e001516040516116ba969594939291909586526020860194909452604085019290925260608401526080830152151560a082015260c00190565b60405180910390a250505050565b60006116d48284611b11565b9392505050565b60006116d48284611af1565b60006116d48284611b30565b60006116d48284611ad9565b336000908152600a60205260408120546060919067ffffffffffffffff81111561173957634e487b7160e01b600052604160045260246000fd5b60405190808252806020026020018201604052801561177257816020015b61175f6118be565b8152602001906001900390816117575790505b50905060005b336000908152600a602052604090205481101561185057336000908152600d6020908152604080832084845282529182902082516101008101845281546001600160a01b031681526001820154928101929092526002810154928201929092526003820154606082015260048201546080820152600582015460a0820152600682015460c082015260079091015460ff16151560e0820152825183908390811061183257634e487b7160e01b600052603260045260246000fd5b6020026020010181905250808061184890611b47565b915050611778565b50919050565b60006116d4826103bb85670de0b6b3a76400006116c8565b600080546001600160a01b038381166001600160a01b0319831681178455604051919092169283917f8be0079c531659141344cd1fd0a4f28419497f9722a3daafe3b4186f6b6457e09190a35050565b60405180610100016040528060006001600160a01b031681526020016000815260200160008152602001600081526020016000815260200160008152602001600081526020016000151581525090565b80356001600160a01b038116811461192557600080fd5b919050565b60006020828403121561193b578081fd5b6116d48261190e565b60008060408385031215611956578081fd5b61195f8361190e565b946020939093013593505050565b60006020828403121561197e578081fd5b815180151581146116d4578182fd5b60006020828403121561199e578081fd5b5035919050565b6001600160a01b039384168152919092166020820152604081019190915260600190565b60208082526036908201527f6c656e64546f6b656e3a205472616e7366657220746f6b656e2066726f6d20756040820152751cd95c881d1bc818dbdb9d1c9858dd0819985a5b195960521b606082015260800190565b60208082526023908201527f5472616e73616374696f6e206661696c6564206f6e20696e69742066756e637460408201526234b7b760e91b606082015260800190565b60208082526022908201527f77697468447261773a206e6f7420656e6f7567682046544d206c697175696469604082015261747960f01b606082015260800190565b6020808252818101527f4f776e61626c653a2063616c6c6572206973206e6f7420746865206f776e6572604082015260600190565b60008219821115611aec57611aec611b62565b500190565b600082611b0c57634e487b7160e01b81526012600452602481fd5b500490565b6000816000190483118215151615611b2b57611b2b611b62565b500290565b600082821015611b4257611b42611b62565b500390565b6000600019821415611b5b57611b5b611b62565b5060010190565b634e487b7160e01b600052601160045260246000fdfea264697066735822122019be196927ea62476c950e7632baaf4075f1518b1f46adb52f0e81ef93b2009164736f6c63430008040033",
  "linkReferences": {},
  "deployedLinkReferences": {}
}