{
  "_format": "hh-sol-artifact-1",
  "contractName": "Staking",
  "sourceName": "contracts/Staking.sol",
  "abi": [
    {
      "inputs": [
        {
          "internalType": "address",
          "name": "_cashpAddress",
          "type": "address"
        },
        {
          "internalType": "address",
          "name": "_marketWalletAddress",
          "type": "address"
        }
      ],
      "stateMutability": "nonpayable",
      "type": "constructor"
    },
    {
      "anonymous": false,
      "inputs": [
        {
          "indexed": false,
          "internalType": "address",
          "name": "claimer",
          "type": "address"
        },
        {
          "indexed": false,
          "internalType": "uint256",
          "name": "claimAmount",
          "type": "uint256"
        },
        {
          "indexed": false,
          "internalType": "bool",
          "name": "expired",
          "type": "bool"
        }
      ],
      "name": "Claim",
      "type": "event"
    },
    {
      "anonymous": false,
      "inputs": [
        {
          "indexed": true,
          "internalType": "address",
          "name": "admin",
          "type": "address"
        },
        {
          "indexed": false,
          "internalType": "uint256",
          "name": "amount",
          "type": "uint256"
        }
      ],
      "name": "InitBalance",
      "type": "event"
    },
    {
      "anonymous": false,
      "inputs": [
        {
          "indexed": true,
          "internalType": "address",
          "name": "lender",
          "type": "address"
        },
        {
          "indexed": false,
          "internalType": "uint256",
          "name": "lendAmount",
          "type": "uint256"
        },
        {
          "indexed": false,
          "internalType": "uint256",
          "name": "timeLend",
          "type": "uint256"
        },
        {
          "indexed": false,
          "internalType": "uint256",
          "name": "timeLastClaim",
          "type": "uint256"
        },
        {
          "indexed": false,
          "internalType": "uint256",
          "name": "timeNextClaim",
          "type": "uint256"
        },
        {
          "indexed": false,
          "internalType": "uint256",
          "name": "timeLendDueDate",
          "type": "uint256"
        },
        {
          "indexed": false,
          "internalType": "bool",
          "name": "retrieved",
          "type": "bool"
        }
      ],
      "name": "NewLend",
      "type": "event"
    },
    {
      "anonymous": false,
      "inputs": [
        {
          "indexed": true,
          "internalType": "address",
          "name": "previousOwner",
          "type": "address"
        },
        {
          "indexed": true,
          "internalType": "address",
          "name": "newOwner",
          "type": "address"
        }
      ],
      "name": "OwnershipTransferred",
      "type": "event"
    },
    {
      "anonymous": false,
      "inputs": [
        {
          "indexed": false,
          "internalType": "uint256",
          "name": "price",
          "type": "uint256"
        }
      ],
      "name": "PriceOfCashPUpdated",
      "type": "event"
    },
    {
      "anonymous": false,
      "inputs": [
        {
          "indexed": true,
          "internalType": "address",
          "name": "priceOracleAddress",
          "type": "address"
        }
      ],
      "name": "PriceOracleUpdated",
      "type": "event"
    },
    {
      "inputs": [],
      "name": "ROI",
      "outputs": [
        {
          "internalType": "uint256",
          "name": "",
          "type": "uint256"
        }
      ],
      "stateMutability": "view",
      "type": "function"
    },
    {
      "inputs": [],
      "name": "cashpAddress",
      "outputs": [
        {
          "internalType": "address",
          "name": "",
          "type": "address"
        }
      ],
      "stateMutability": "view",
      "type": "function"
    },
    {
      "inputs": [],
      "name": "cashpPrice",
      "outputs": [
        {
          "internalType": "uint256",
          "name": "",
          "type": "uint256"
        }
      ],
      "stateMutability": "view",
      "type": "function"
    },
    {
      "inputs": [],
      "name": "cashpTotalLiquidity",
      "outputs": [
        {
          "internalType": "uint256",
          "name": "",
          "type": "uint256"
        }
      ],
      "stateMutability": "view",
      "type": "function"
    },
    {
      "inputs": [
        {
          "internalType": "uint256",
          "name": "_amount",
          "type": "uint256"
        }
      ],
      "name": "checkEnoughLiquidity",
      "outputs": [
        {
          "internalType": "bool",
          "name": "",
          "type": "bool"
        }
      ],
      "stateMutability": "view",
      "type": "function"
    },
    {
      "inputs": [],
      "name": "claim",
      "outputs": [],
      "stateMutability": "nonpayable",
      "type": "function"
    },
    {
      "inputs": [],
      "name": "compound",
      "outputs": [],
      "stateMutability": "nonpayable",
      "type": "function"
    },
    {
      "inputs": [
        {
          "internalType": "uint256",
          "name": "_amount",
          "type": "uint256"
        }
      ],
      "name": "deposite",
      "outputs": [],
      "stateMutability": "nonpayable",
      "type": "function"
    },
    {
      "inputs": [],
      "name": "getTotalClaimAmount",
      "outputs": [
        {
          "internalType": "uint256",
          "name": "",
          "type": "uint256"
        }
      ],
      "stateMutability": "view",
      "type": "function"
    },
    {
      "inputs": [],
      "name": "getUserTotalClaimAmount",
      "outputs": [
        {
          "internalType": "uint256",
          "name": "",
          "type": "uint256"
        }
      ],
      "stateMutability": "view",
      "type": "function"
    },
    {
      "inputs": [],
      "name": "getUserTotalDepositAmount",
      "outputs": [
        {
          "internalType": "uint256",
          "name": "",
          "type": "uint256"
        }
      ],
      "stateMutability": "view",
      "type": "function"
    },
    {
      "inputs": [
        {
          "internalType": "uint256",
          "name": "_amount",
          "type": "uint256"
        }
      ],
      "name": "initCashp",
      "outputs": [],
      "stateMutability": "nonpayable",
      "type": "function"
    },
    {
      "inputs": [],
      "name": "lendCount",
      "outputs": [
        {
          "internalType": "uint256",
          "name": "",
          "type": "uint256"
        }
      ],
      "stateMutability": "view",
      "type": "function"
    },
    {
      "inputs": [
        {
          "internalType": "address",
          "name": "",
          "type": "address"
        },
        {
          "internalType": "uint256",
          "name": "",
          "type": "uint256"
        }
      ],
      "name": "lends",
      "outputs": [
        {
          "internalType": "address",
          "name": "lender",
          "type": "address"
        },
        {
          "internalType": "uint256",
          "name": "lendId",
          "type": "uint256"
        },
        {
          "internalType": "uint256",
          "name": "lendAmount",
          "type": "uint256"
        },
        {
          "internalType": "uint256",
          "name": "timeLend",
          "type": "uint256"
        },
        {
          "internalType": "uint256",
          "name": "timeLastClaim",
          "type": "uint256"
        },
        {
          "internalType": "uint256",
          "name": "timeNextClaim",
          "type": "uint256"
        },
        {
          "internalType": "uint256",
          "name": "timeLendDueDate",
          "type": "uint256"
        },
        {
          "internalType": "bool",
          "name": "retrieved",
          "type": "bool"
        },
        {
          "internalType": "bool",
          "name": "isExpired",
          "type": "bool"
        }
      ],
      "stateMutability": "view",
      "type": "function"
    },
    {
      "inputs": [],
      "name": "marketWalletAddress",
      "outputs": [
        {
          "internalType": "address",
          "name": "",
          "type": "address"
        }
      ],
      "stateMutability": "view",
      "type": "function"
    },
    {
      "inputs": [],
      "name": "owner",
      "outputs": [
        {
          "internalType": "address",
          "name": "",
          "type": "address"
        }
      ],
      "stateMutability": "view",
      "type": "function"
    },
    {
      "inputs": [],
      "name": "renounceOwnership",
      "outputs": [],
      "stateMutability": "nonpayable",
      "type": "function"
    },
    {
      "inputs": [
        {
          "internalType": "uint256",
          "name": "price",
          "type": "uint256"
        }
      ],
      "name": "setCashpPrice",
      "outputs": [],
      "stateMutability": "nonpayable",
      "type": "function"
    },
    {
      "inputs": [],
      "name": "stakingPeriod",
      "outputs": [
        {
          "internalType": "uint256",
          "name": "",
          "type": "uint256"
        }
      ],
      "stateMutability": "view",
      "type": "function"
    },
    {
      "inputs": [],
      "name": "taxLend",
      "outputs": [
        {
          "internalType": "uint256",
          "name": "",
          "type": "uint256"
        }
      ],
      "stateMutability": "view",
      "type": "function"
    },
    {
      "inputs": [
        {
          "internalType": "address",
          "name": "newOwner",
          "type": "address"
        }
      ],
      "name": "transferOwnership",
      "outputs": [],
      "stateMutability": "nonpayable",
      "type": "function"
    },
    {
      "inputs": [
        {
          "internalType": "address",
          "name": "",
          "type": "address"
        }
      ],
      "name": "userClaimAmount",
      "outputs": [
        {
          "internalType": "uint256",
          "name": "",
          "type": "uint256"
        }
      ],
      "stateMutability": "view",
      "type": "function"
    },
    {
      "inputs": [
        {
          "internalType": "address",
          "name": "",
          "type": "address"
        }
      ],
      "name": "userLendsAmount",
      "outputs": [
        {
          "internalType": "uint256",
          "name": "",
          "type": "uint256"
        }
      ],
      "stateMutability": "view",
      "type": "function"
    },
    {
      "inputs": [
        {
          "internalType": "address",
          "name": "",
          "type": "address"
        }
      ],
      "name": "userLendsCount",
      "outputs": [
        {
          "internalType": "uint256",
          "name": "",
          "type": "uint256"
        }
      ],
      "stateMutability": "view",
      "type": "function"
    },
    {
      "inputs": [
        {
          "internalType": "uint256",
          "name": "_amount",
          "type": "uint256"
        }
      ],
      "name": "withDrawReserve",
      "outputs": [],
      "stateMutability": "nonpayable",
      "type": "function"
    },
    {
      "inputs": [],
      "name": "withdrawPeriod",
      "outputs": [
        {
          "internalType": "uint256",
          "name": "",
          "type": "uint256"
        }
      ],
      "stateMutability": "view",
      "type": "function"
    }
  ],
  "bytecode": "0x608060405262ed4e00600555620151806006556709b6e64a8ec60000600755671bc16d674ec80000600855678ac7230489e800006009553480156200004357600080fd5b5060405162001b6738038062001b67833981016040819052620000669162000119565b6200007133620000ac565b600180556000600255600380546001600160a01b039384166001600160a01b0319918216179091556004805492909316911617905562000150565b600080546001600160a01b038381166001600160a01b0319831681178455604051919092169283917f8be0079c531659141344cd1fd0a4f28419497f9722a3daafe3b4186f6b6457e09190a35050565b80516001600160a01b03811681146200011457600080fd5b919050565b600080604083850312156200012c578182fd5b6200013783620000fc565b91506200014760208401620000fc565b90509250929050565b611a0780620001606000396000f3fe608060405234801561001057600080fd5b506004361061018e5760003560e01c80638a6a29a0116100de578063abf5af7e11610097578063cbedbf1b11610071578063cbedbf1b146103ef578063d5c4315914610402578063f2fde38b1461040b578063f69e20461461041e57600080fd5b8063abf5af7e146103c9578063c03d5b47146103d1578063c706bd66146103da57600080fd5b80638a6a29a01461035e5780638da5cb5b1461037e5780638f1f49831461038f57806395372c0614610398578063a1b8fabd146103a1578063a7e6f290146103b657600080fd5b80634e71d92d1161014b5780637adac61e116101255780637adac61e146102ed5780637eb96b7b1461031857806382a165dc1461033857806384bcf81e1461034b57600080fd5b80634e71d92d146102d4578063699e0f56146102dc578063715018a6146102e557600080fd5b806312eb4f9a1461019357806318e137f0146101af57806329da6419146101cf5780633104562b146101d8578063439b3543146101ed578063484aaa99146102b1575b600080fd5b61019c60065481565b6040519081526020015b60405180910390f35b61019c6101bd366004611783565b600b6020526000908152604090205481565b61019c60025481565b6101eb6101e63660046117e6565b610426565b005b61025f6101fb36600461179d565b600d602090815260009283526040808420909152908252902080546001820154600283015460038401546004850154600586015460068701546007909701546001600160a01b03909616969495939492939192909160ff8082169161010090041689565b604080516001600160a01b03909a168a5260208a0198909852968801959095526060870193909352608086019190915260a085015260c0840152151560e08301521515610100820152610120016101a6565b6102c46102bf3660046117e6565b610824565b60405190151581526020016101a6565b6101eb610844565b61019c60015481565b6101eb610d9f565b600354610300906001600160a01b031681565b6040516001600160a01b0390911681526020016101a6565b61019c610326366004611783565b600c6020526000908152604090205481565b6101eb6103463660046117e6565b610dd5565b600454610300906001600160a01b031681565b61019c61036c366004611783565b600a6020526000908152604090205481565b6000546001600160a01b0316610300565b61019c60075481565b61019c60095481565b336000908152600c602052604090205461019c565b6101eb6103c43660046117e6565b610e3a565b61019c610f6e565b61019c60055481565b336000908152600b602052604090205461019c565b6101eb6103fd3660046117e6565b61106d565b61019c60085481565b6101eb610419366004611783565b611206565b6101eb6112a1565b600061044860646104426009548561165790919063ffffffff16565b90611676565b905060006104568383611682565b6003546040516323b872dd60e01b81529192506001600160a01b0316906323b872dd9061048b903390309086906004016117fe565b602060405180830381600087803b1580156104a557600080fd5b505af11580156104b9573d6000803e3d6000fd5b505050506040513d601f19601f820116820180604052508101906104dd91906117c6565b6105025760405162461bcd60e51b81526004016104f990611822565b60405180910390fd5b600354600480546040516323b872dd60e01b81526001600160a01b03938416936323b872dd936105399333939216918891016117fe565b602060405180830381600087803b15801561055357600080fd5b505af1158015610567573d6000803e3d6000fd5b505050506040513d601f19601f8201168201806040525081019061058b91906117c6565b6105a75760405162461bcd60e51b81526004016104f990611822565b6105af61170e565b338082526000908152600a60209081526040918290205490830152810182905242606082018190526105e49062ed4e00611932565b60c082015242608082018190526105fc90603c611932565b60a08201908152600060e08301818152338252600d60209081526040808420600a83528185205485528252808420865181546001600160a01b03919091166001600160a01b03199091161781559186015160018381019190915590860151600283015560608601516003830155608086015160048301559351600582015560c085015160068201559051600790910180546101008087015115150261ff00199315159390931661ffff1990911617919091179055815491906106bd836119a0565b9091555050336000908152600a602052604081208054916106dd836119a0565b9091555050336000908152600b60205260409020546106fc908361168e565b50600354604051633950935160e01b8152306004820152602481018490526001600160a01b0390911690633950935190604401602060405180830381600087803b15801561074957600080fd5b505af115801561075d573d6000803e3d6000fd5b505050506040513d601f19601f8201168201806040525081019061078191906117c6565b5060025461078f908361168e565b60025580516040808301516060840151608085015160a086015160c087015160e088015195516001600160a01b03909716967f01d49482f4cb5cc9faa74dd0fde983c4e5387b6a372a4896e324a3a2ae94cc59966108169695949392919586526020860194909452604085019290925260608401526080830152151560a082015260c00190565b60405180910390a250505050565b6002546000908083111561083b5750600092915050565b50600192915050565b6000805b336000908152600a602052604090205481101561094157336000908152600d602090815260408083208484529091529020600781015460ff1661092e57600781015460ff1661092e57428160050154101561092e5780546001600160a01b031633141561092e576000428260060154106108d8576108d1603c8360040154426104429190611989565b90506108f4565b6108f1603c836004015484600601546104429190611989565b90505b600061091e826109186064610442600854886002015461165790919063ffffffff16565b9061169a565b905061092a858261168e565b5050505b5080610939816119a0565b915050610848565b5061094b81610824565b6109675760405162461bcd60e51b81526004016104f9906118bb565b60006109836064610918600254856116a690919063ffffffff16565b90506000670de0b6b3a764000082106109ad576109a66064610442856005611657565b9050610ac7565b671bc16d674ec8000082106109cc576109a6606461044285600a611657565b6729a2241af62c000082106109eb576109a6606461044285600f611657565b673782dace9d9000008210610a0a576109a66064610442856014611657565b674563918244f400008210610a29576109a66064610442856019611657565b6753444835ec5800008210610a48576109a6606461044285601e611657565b676124fee993bc00008210610a67576109a66064610442856023611657565b676f05b59d3b2000008210610a86576109a66064610442856028611657565b677ce66c50e28400008210610aa5576109a6606461044285602d611657565b678ac7230489e800008210610ac757610ac46064610442856032611657565b90505b6000610ad38483611682565b6003546040516323b872dd60e01b81529192506001600160a01b0316906323b872dd90610b08903090339086906004016117fe565b602060405180830381600087803b158015610b2257600080fd5b505af1158015610b36573d6000803e3d6000fd5b505050506040513d601f19601f82011682018060405250810190610b5a91906117c6565b610bc25760405162461bcd60e51b815260206004820152603360248201527f77697468447261773a206661696c207472616e7366657220636173687020667260448201527237b69031b7b73a3930b1ba103a37903ab9b2b960691b60648201526084016104f9565b600354600480546040516323b872dd60e01b81526001600160a01b03938416936323b872dd93610bf99330939216918891016117fe565b602060405180830381600087803b158015610c1357600080fd5b505af1158015610c27573d6000803e3d6000fd5b505050506040513d601f19601f82011682018060405250810190610c4b91906117c6565b610cbd5760405162461bcd60e51b815260206004820152603d60248201527f77697468447261773a206661696c207472616e7366657220636173687020667260448201527f6f6d20636f6e747261637420746f206d61726b65742077616c6c65742000000060648201526084016104f9565b600254610cca9085611682565b50336000908152600c6020526040902054610ce5908261168e565b5060005b336000908152600a6020526040902054811015610d9857336000908152600d602090815260408083208484529091529020600781015460ff16610d8557600781015460ff16610d85574281600501541015610d855780546001600160a01b0316331415610d85574260048201819055610d6390603c611932565b6005820181905560068201541015610d855760078101805460ff191660011790555b5080610d90816119a0565b915050610ce9565b5050505050565b6000546001600160a01b03163314610dc95760405162461bcd60e51b81526004016104f9906118fd565b610dd360006116be565b565b6000546001600160a01b03163314610dff5760405162461bcd60e51b81526004016104f9906118fd565b60078190556040518181527fdfec83bf751111b25fe62c0ba432702a67f73bd2b75bbf6961423962f17d9e7b9060200160405180910390a150565b6000546001600160a01b03163314610e645760405162461bcd60e51b81526004016104f9906118fd565b610e6d81610824565b610eb95760405162461bcd60e51b815260206004820152601e60248201527f77697468447261773a206e6f7420656e6f756768206c6971756964697479000060448201526064016104f9565b6003546040516323b872dd60e01b81526001600160a01b03909116906323b872dd90610eed903090339086906004016117fe565b602060405180830381600087803b158015610f0757600080fd5b505af1158015610f1b573d6000803e3d6000fd5b505050506040513d601f19601f82011682018060405250810190610f3f91906117c6565b610f5b5760405162461bcd60e51b81526004016104f990611878565b600254610f689082611682565b60025550565b60008060005b336000908152600a602052604090205481101561106757336000908152600d602090815260408083208484529091529020600781015460ff1661105457600781015460ff166110545742816005015410156110545780546001600160a01b03163314156110545760004282600601541061100457610ffd603c8360040154426104429190611989565b9050611020565b61101d603c836004015484600601546104429190611989565b90505b6000611044826109186064610442600854886002015461165790919063ffffffff16565b9050611050858261168e565b5050505b508061105f816119a0565b915050610f74565b50919050565b6000546001600160a01b031633146110975760405162461bcd60e51b81526004016104f9906118fd565b6003546040516323b872dd60e01b81526001600160a01b03909116906323b872dd906110cb903390309086906004016117fe565b602060405180830381600087803b1580156110e557600080fd5b505af11580156110f9573d6000803e3d6000fd5b505050506040513d601f19601f8201168201806040525081019061111d91906117c6565b6111395760405162461bcd60e51b81526004016104f990611878565b600354604051633950935160e01b8152306004820152602481018390526001600160a01b0390911690633950935190604401602060405180830381600087803b15801561118557600080fd5b505af1158015611199573d6000803e3d6000fd5b505050506040513d601f19601f820116820180604052508101906111bd91906117c6565b506002546111cb908261168e565b60025560405181815233907f4c94cc7b9194bb9209824a53bc1a99a306eb9a1301664c500b1ff71360902f7d9060200160405180910390a250565b6000546001600160a01b031633146112305760405162461bcd60e51b81526004016104f9906118fd565b6001600160a01b0381166112955760405162461bcd60e51b815260206004820152602660248201527f4f776e61626c653a206e6577206f776e657220697320746865207a65726f206160448201526564647265737360d01b60648201526084016104f9565b61129e816116be565b50565b6000805b336000908152600a602052604090205481101561139857336000908152600d602090815260408083208484529091529020600781015460ff1661138557600781015460ff166113855742816005015410156113855780546001600160a01b0316331415611385576000428260060154106113355761132e603c8360040154426104429190611989565b9050611351565b61134e603c836004015484600601546104429190611989565b90505b6000611375826109186064610442600854886002015461165790919063ffffffff16565b9050611381858261168e565b5050505b5080611390816119a0565b9150506112a5565b506113a281610824565b6113be5760405162461bcd60e51b81526004016104f9906118bb565b6113c661170e565b338082526000908152600a60209081526040918290205490830152810182905242606082018190526113fb9062ed4e00611932565b60c0820152426080820181905261141390603c611932565b60a08201908152600060e08301818152338252600d60209081526040808420600a83528185205485528252808420865181546001600160a01b03919091166001600160a01b03199091161781559186015160018381019190915590860151600283015560608601516003830155608086015160048301559351600582015560c085015160068201559051600790910180546101008087015115150261ff00199315159390931661ffff1990911617919091179055815491906114d4836119a0565b9091555050336000908152600a602052604081208054916114f4836119a0565b9091555050336000908152600b6020526040902054611513908361168e565b5060005b336000908152600a60205260409020548110156115c657336000908152600d602090815260408083208484529091529020600781015460ff166115b357600781015460ff166115b35742816005015410156115b35780546001600160a01b03163314156115b357426004820181905561159190603c611932565b60058201819055600682015410156115b35760078101805460ff191660011790555b50806115be816119a0565b915050611517565b5080600001516001600160a01b03167f01d49482f4cb5cc9faa74dd0fde983c4e5387b6a372a4896e324a3a2ae94cc598260400151836060015184608001518560a001518660c001518760e0015160405161164b969594939291909586526020860194909452604085019290925260608401526080830152151560a082015260c00190565b60405180910390a25050565b600061166f670de0b6b3a7640000610442858561169a565b9392505050565b600061166f828461194a565b600061166f8284611989565b600061166f8284611932565b600061166f828461196a565b600061166f8261044285670de0b6b3a764000061169a565b600080546001600160a01b038381166001600160a01b0319831681178455604051919092169283917f8be0079c531659141344cd1fd0a4f28419497f9722a3daafe3b4186f6b6457e09190a35050565b60405180610120016040528060006001600160a01b031681526020016000815260200160008152602001600081526020016000815260200160008152602001600081526020016000151581526020016000151581525090565b80356001600160a01b038116811461177e57600080fd5b919050565b600060208284031215611794578081fd5b61166f82611767565b600080604083850312156117af578081fd5b6117b883611767565b946020939093013593505050565b6000602082840312156117d7578081fd5b8151801515811461166f578182fd5b6000602082840312156117f7578081fd5b5035919050565b6001600160a01b039384168152919092166020820152604081019190915260600190565b60208082526036908201527f6c656e64546f6b656e3a205472616e7366657220746f6b656e2066726f6d20756040820152751cd95c881d1bc818dbdb9d1c9858dd0819985a5b195960521b606082015260800190565b60208082526023908201527f5472616e73616374696f6e206661696c6564206f6e20696e69742066756e637460408201526234b7b760e91b606082015260800190565b60208082526022908201527f77697468447261773a206e6f7420656e6f7567682046544d206c697175696469604082015261747960f01b606082015260800190565b6020808252818101527f4f776e61626c653a2063616c6c6572206973206e6f7420746865206f776e6572604082015260600190565b60008219821115611945576119456119bb565b500190565b60008261196557634e487b7160e01b81526012600452602481fd5b500490565b6000816000190483118215151615611984576119846119bb565b500290565b60008282101561199b5761199b6119bb565b500390565b60006000198214156119b4576119b46119bb565b5060010190565b634e487b7160e01b600052601160045260246000fdfea2646970667358221220814cd7f37c09f4194025a161def50a425690f392eb2ed70cba88b2469795df6764736f6c63430008040033",
  "linkReferences": {},
  "deployedLinkReferences": {}
}